{
  "contractName": "BatteryChain",
  "abi": [
    {
      "inputs": [
        {
          "internalType": "string",
          "name": "baseBatteryURI",
          "type": "string"
        }
      ],
      "stateMutability": "nonpayable",
      "type": "constructor"
    },
    {
      "anonymous": false,
      "inputs": [
        {
          "indexed": true,
          "internalType": "address",
          "name": "previousOwner",
          "type": "address"
        },
        {
          "indexed": true,
          "internalType": "address",
          "name": "newOwner",
          "type": "address"
        }
      ],
      "name": "OwnershipTransferred",
      "type": "event"
    },
    {
      "anonymous": false,
      "inputs": [
        {
          "indexed": true,
          "internalType": "string",
          "name": "serialNumber",
          "type": "string"
        },
        {
          "indexed": false,
          "internalType": "bytes",
          "name": "data",
          "type": "bytes"
        }
      ],
      "name": "Recycled",
      "type": "event"
    },
    {
      "anonymous": false,
      "inputs": [
        {
          "indexed": true,
          "internalType": "string",
          "name": "serialNumber",
          "type": "string"
        },
        {
          "indexed": false,
          "internalType": "bytes",
          "name": "data",
          "type": "bytes"
        }
      ],
      "name": "Registered",
      "type": "event"
    },
    {
      "anonymous": false,
      "inputs": [
        {
          "indexed": true,
          "internalType": "string",
          "name": "serialNumber",
          "type": "string"
        },
        {
          "indexed": false,
          "internalType": "bytes",
          "name": "data",
          "type": "bytes"
        }
      ],
      "name": "Shipped",
      "type": "event"
    },
    {
      "inputs": [],
      "name": "_totalBatteries",
      "outputs": [
        {
          "internalType": "uint256",
          "name": "_value",
          "type": "uint256"
        }
      ],
      "stateMutability": "view",
      "type": "function",
      "constant": true
    },
    {
      "inputs": [],
      "name": "owner",
      "outputs": [
        {
          "internalType": "address",
          "name": "",
          "type": "address"
        }
      ],
      "stateMutability": "view",
      "type": "function",
      "constant": true
    },
    {
      "inputs": [],
      "name": "renounceOwnership",
      "outputs": [],
      "stateMutability": "nonpayable",
      "type": "function"
    },
    {
      "inputs": [
        {
          "internalType": "address",
          "name": "newOwner",
          "type": "address"
        }
      ],
      "name": "transferOwnership",
      "outputs": [],
      "stateMutability": "nonpayable",
      "type": "function"
    },
    {
      "inputs": [
        {
          "internalType": "string",
          "name": "serialNumber",
          "type": "string"
        }
      ],
      "name": "_isRegistered",
      "outputs": [
        {
          "internalType": "bool",
          "name": "",
          "type": "bool"
        }
      ],
      "stateMutability": "view",
      "type": "function",
      "constant": true
    },
    {
      "inputs": [
        {
          "internalType": "string",
          "name": "serialNumber",
          "type": "string"
        }
      ],
      "name": "_isShipped",
      "outputs": [
        {
          "internalType": "bool",
          "name": "",
          "type": "bool"
        }
      ],
      "stateMutability": "view",
      "type": "function",
      "constant": true
    },
    {
      "inputs": [
        {
          "internalType": "string",
          "name": "serialNumber",
          "type": "string"
        }
      ],
      "name": "_isRecycled",
      "outputs": [
        {
          "internalType": "bool",
          "name": "",
          "type": "bool"
        }
      ],
      "stateMutability": "view",
      "type": "function",
      "constant": true
    },
    {
      "inputs": [
        {
          "internalType": "string",
          "name": "serialNumber",
          "type": "string"
        }
      ],
      "name": "batteryURI",
      "outputs": [
        {
          "internalType": "string",
          "name": "",
          "type": "string"
        }
      ],
      "stateMutability": "view",
      "type": "function",
      "constant": true
    },
    {
      "inputs": [
        {
          "internalType": "string",
          "name": "baseBatteryURI",
          "type": "string"
        }
      ],
      "name": "updateBaseUri",
      "outputs": [],
      "stateMutability": "nonpayable",
      "type": "function"
    },
    {
      "inputs": [
        {
          "internalType": "string",
          "name": "serialNumber",
          "type": "string"
        },
        {
          "internalType": "bytes",
          "name": "data",
          "type": "bytes"
        }
      ],
      "name": "register",
      "outputs": [],
      "stateMutability": "nonpayable",
      "type": "function"
    },
    {
      "inputs": [
        {
          "internalType": "string",
          "name": "serialNumber",
          "type": "string"
        },
        {
          "internalType": "bytes",
          "name": "data",
          "type": "bytes"
        }
      ],
      "name": "ship",
      "outputs": [],
      "stateMutability": "nonpayable",
      "type": "function"
    },
    {
      "inputs": [
        {
          "internalType": "string",
          "name": "serialNumber",
          "type": "string"
        },
        {
          "internalType": "bytes",
          "name": "data",
          "type": "bytes"
        }
      ],
      "name": "recycle",
      "outputs": [],
      "stateMutability": "nonpayable",
      "type": "function"
    },
    {
      "inputs": [
        {
          "internalType": "string",
          "name": "serialNumber",
          "type": "string"
        }
      ],
      "name": "getBattery",
      "outputs": [
        {
          "components": [
            {
              "internalType": "string",
              "name": "serialNumber",
              "type": "string"
            },
            {
              "internalType": "bytes",
              "name": "data",
              "type": "bytes"
            },
            {
              "internalType": "bool",
              "name": "isRegistered",
              "type": "bool"
            },
            {
              "internalType": "bool",
              "name": "isShipped",
              "type": "bool"
            },
            {
              "internalType": "bool",
              "name": "isRecycled",
              "type": "bool"
            }
          ],
          "internalType": "struct BatteryChain.Battery",
          "name": "",
          "type": "tuple"
        }
      ],
      "stateMutability": "view",
      "type": "function",
      "constant": true
    }
  ],
  "bytecode": "0x60806040523480156200001157600080fd5b5060405162002314380380620023148339818101604052810190620000379190620002d9565b620000576200004b6200007060201b60201c565b6200007860201b60201c565b806003908162000068919062000575565b50506200065c565b600033905090565b60008060009054906101000a900473ffffffffffffffffffffffffffffffffffffffff169050816000806101000a81548173ffffffffffffffffffffffffffffffffffffffff021916908373ffffffffffffffffffffffffffffffffffffffff1602179055508173ffffffffffffffffffffffffffffffffffffffff168173ffffffffffffffffffffffffffffffffffffffff167f8be0079c531659141344cd1fd0a4f28419497f9722a3daafe3b4186f6b6457e060405160405180910390a35050565b6000604051905090565b600080fd5b600080fd5b600080fd5b600080fd5b6000601f19601f8301169050919050565b7f4e487b7100000000000000000000000000000000000000000000000000000000600052604160045260246000fd5b620001a5826200015a565b810181811067ffffffffffffffff82111715620001c757620001c66200016b565b5b80604052505050565b6000620001dc6200013c565b9050620001ea82826200019a565b919050565b600067ffffffffffffffff8211156200020d576200020c6200016b565b5b62000218826200015a565b9050602081019050919050565b60005b838110156200024557808201518184015260208101905062000228565b8381111562000255576000848401525b50505050565b6000620002726200026c84620001ef565b620001d0565b90508281526020810184848401111562000291576200029062000155565b5b6200029e84828562000225565b509392505050565b600082601f830112620002be57620002bd62000150565b5b8151620002d08482602086016200025b565b91505092915050565b600060208284031215620002f257620002f162000146565b5b600082015167ffffffffffffffff8111156200031357620003126200014b565b5b6200032184828501620002a6565b91505092915050565b600081519050919050565b7f4e487b7100000000000000000000000000000000000000000000000000000000600052602260045260246000fd5b600060028204905060018216806200037d57607f821691505b60208210810362000393576200039262000335565b5b50919050565b60008190508160005260206000209050919050565b60006020601f8301049050919050565b600082821b905092915050565b600060088302620003fd7fffffffffffffffffffffffffffffffffffffffffffffffffffffffffffffffff82620003be565b620004098683620003be565b95508019841693508086168417925050509392505050565b6000819050919050565b6000819050919050565b600062000456620004506200044a8462000421565b6200042b565b62000421565b9050919050565b6000819050919050565b620004728362000435565b6200048a62000481826200045d565b848454620003cb565b825550505050565b600090565b620004a162000492565b620004ae81848462000467565b505050565b5b81811015620004d657620004ca60008262000497565b600181019050620004b4565b5050565b601f8211156200052557620004ef8162000399565b620004fa84620003ae565b810160208510156200050a578190505b620005226200051985620003ae565b830182620004b3565b50505b505050565b600082821c905092915050565b60006200054a600019846008026200052a565b1980831691505092915050565b600062000565838362000537565b9150826002028217905092915050565b62000580826200032a565b67ffffffffffffffff8111156200059c576200059b6200016b565b5b620005a8825462000364565b620005b5828285620004da565b600060209050601f831160018114620005ed5760008415620005d8578287015190505b620005e4858262000557565b86555062000654565b601f198416620005fd8662000399565b60005b82811015620006275784890151825560018201915060208501945060208101905062000600565b8683101562000647578489015162000643601f89168262000537565b8355505b6001600288020188555050505b505050505050565b611ca8806200066c6000396000f3fe608060405234801561001057600080fd5b50600436106100cf5760003560e01c80638da5cb5b1161008c578063df159dfe11610066578063df159dfe146101fc578063e063e4781461022c578063f2fde38b1461025c578063f3b3cefe14610278576100cf565b80638da5cb5b14610192578063b96431cc146101b0578063cc7c8482146101e0576100cf565b806339f7e37f146100d4578063498ed163146100f057806350db6b40146101205780635a0e48811461013c578063715018a6146101585780638549eada14610162575b600080fd5b6100ee60048036038101906100e99190611058565b610296565b005b61010a60048036038101906101059190611058565b610325565b60405161011791906110bc565b60405180910390f35b61013a60048036038101906101359190611178565b61035d565b005b61015660048036038101906101519190611178565b610541565b005b610160610732565b005b61017c60048036038101906101779190611058565b6107ba565b6040516101899190611278565b60405180910390f35b61019a61081b565b6040516101a791906112db565b60405180910390f35b6101ca60048036038101906101c59190611058565b610844565b6040516101d791906110bc565b60405180910390f35b6101fa60048036038101906101f59190611178565b61087c565b005b61021660048036038101906102119190611058565b610a6d565b60405161022391906110bc565b60405180910390f35b61024660048036038101906102419190611058565b610aa5565b6040516102539190611421565b60405180910390f35b6102766004803603810190610271919061146f565b610c52565b005b610280610d49565b60405161028d91906114b5565b60405180910390f35b61029e610d55565b73ffffffffffffffffffffffffffffffffffffffff166102bc61081b565b73ffffffffffffffffffffffffffffffffffffffff1614610312576040517f08c379a00000000000000000000000000000000000000000000000000000000081526004016103099061151c565b60405180910390fd5b80600390816103219190611748565b5050565b60006002826040516103379190611856565b908152602001604051809103902060020160029054906101000a900460ff169050919050565b610365610d55565b73ffffffffffffffffffffffffffffffffffffffff1661038361081b565b73ffffffffffffffffffffffffffffffffffffffff16146103d9576040517f08c379a00000000000000000000000000000000000000000000000000000000081526004016103d09061151c565b60405180910390fd5b600015156002836040516103ed9190611856565b908152602001604051809103902060020160009054906101000a900460ff1615151461044e576040517f08c379a0000000000000000000000000000000000000000000000000000000008152600401610445906118df565b60405180910390fd5b8160028360405161045f9190611856565b9081526020016040518091039020600001908161047c9190611748565b508060028360405161048e9190611856565b908152602001604051809103902060010190816104ab919061195a565b5060016002836040516104be9190611856565b908152602001604051809103902060020160006101000a81548160ff021916908315150217905550816040516104f49190611856565b60405180910390207f77f28e69d3b2a45ca76cf58a7c025fd2cc83ab0a1d38fe5c97274bdfcb920a1c8260405161052b9190611a76565b60405180910390a261053d6001610d5d565b5050565b610549610d55565b73ffffffffffffffffffffffffffffffffffffffff1661056761081b565b73ffffffffffffffffffffffffffffffffffffffff16146105bd576040517f08c379a00000000000000000000000000000000000000000000000000000000081526004016105b49061151c565b60405180910390fd5b600115156002836040516105d19190611856565b908152602001604051809103902060020160009054906101000a900460ff16151514610632576040517f08c379a000000000000000000000000000000000000000000000000000000000815260040161062990611b0a565b60405180910390fd5b600015156002836040516106469190611856565b908152602001604051809103902060020160029054906101000a900460ff161515146106a7576040517f08c379a000000000000000000000000000000000000000000000000000000000815260040161069e90611b9c565b60405180910390fd5b60016002836040516106b99190611856565b908152602001604051809103902060020160026101000a81548160ff021916908315150217905550816040516106ef9190611856565b60405180910390207ff9e9b9dd7e78457bd1b59dc527d361c70925600e20f6f9c02c92ce5b4e689c10826040516107269190611a76565b60405180910390a25050565b61073a610d55565b73ffffffffffffffffffffffffffffffffffffffff1661075861081b565b73ffffffffffffffffffffffffffffffffffffffff16146107ae576040517f08c379a00000000000000000000000000000000000000000000000000000000081526004016107a59061151c565b60405180910390fd5b6107b86000610d73565b565b60606107c582610844565b5060006107d0610e37565b905060008151116107f05760405180602001604052806000815250610813565b8083604051602001610803929190611bbc565b6040516020818303038152906040525b915050919050565b60008060009054906101000a900473ffffffffffffffffffffffffffffffffffffffff16905090565b60006002826040516108569190611856565b908152602001604051809103902060020160009054906101000a900460ff169050919050565b610884610d55565b73ffffffffffffffffffffffffffffffffffffffff166108a261081b565b73ffffffffffffffffffffffffffffffffffffffff16146108f8576040517f08c379a00000000000000000000000000000000000000000000000000000000081526004016108ef9061151c565b60405180910390fd5b6001151560028360405161090c9190611856565b908152602001604051809103902060020160009054906101000a900460ff1615151461096d576040517f08c379a000000000000000000000000000000000000000000000000000000000815260040161096490611b0a565b60405180910390fd5b600015156002836040516109819190611856565b908152602001604051809103902060020160029054906101000a900460ff161515146109e2576040517f08c379a00000000000000000000000000000000000000000000000000000000081526004016109d990611b9c565b60405180910390fd5b60016002836040516109f49190611856565b908152602001604051809103902060020160016101000a81548160ff02191690831515021790555081604051610a2a9190611856565b60405180910390207f46b95e165d33ad7e8df2775ec310f9880114ae746e854900d86795a1462f304782604051610a619190611a76565b60405180910390a25050565b6000600282604051610a7f9190611856565b908152602001604051809103902060020160019054906101000a900460ff169050919050565b610aad610ec9565b600282604051610abd9190611856565b90815260200160405180910390206040518060a0016040529081600082018054610ae69061156b565b80601f0160208091040260200160405190810160405280929190818152602001828054610b129061156b565b8015610b5f5780601f10610b3457610100808354040283529160200191610b5f565b820191906000526020600020905b815481529060010190602001808311610b4257829003601f168201915b50505050508152602001600182018054610b789061156b565b80601f0160208091040260200160405190810160405280929190818152602001828054610ba49061156b565b8015610bf15780601f10610bc657610100808354040283529160200191610bf1565b820191906000526020600020905b815481529060010190602001808311610bd457829003601f168201915b505050505081526020016002820160009054906101000a900460ff161515151581526020016002820160019054906101000a900460ff161515151581526020016002820160029054906101000a900460ff1615151515815250509050919050565b610c5a610d55565b73ffffffffffffffffffffffffffffffffffffffff16610c7861081b565b73ffffffffffffffffffffffffffffffffffffffff1614610cce576040517f08c379a0000000000000000000000000000000000000000000000000000000008152600401610cc59061151c565b60405180910390fd5b600073ffffffffffffffffffffffffffffffffffffffff168173ffffffffffffffffffffffffffffffffffffffff1603610d3d576040517f08c379a0000000000000000000000000000000000000000000000000000000008152600401610d3490611c52565b60405180910390fd5b610d4681610d73565b50565b60018060000154905081565b600033905090565b6001816000016000828254019250508190555050565b60008060009054906101000a900473ffffffffffffffffffffffffffffffffffffffff169050816000806101000a81548173ffffffffffffffffffffffffffffffffffffffff021916908373ffffffffffffffffffffffffffffffffffffffff1602179055508173ffffffffffffffffffffffffffffffffffffffff168173ffffffffffffffffffffffffffffffffffffffff167f8be0079c531659141344cd1fd0a4f28419497f9722a3daafe3b4186f6b6457e060405160405180910390a35050565b606060038054610e469061156b565b80601f0160208091040260200160405190810160405280929190818152602001828054610e729061156b565b8015610ebf5780601f10610e9457610100808354040283529160200191610ebf565b820191906000526020600020905b815481529060010190602001808311610ea257829003601f168201915b5050505050905090565b6040518060a0016040528060608152602001606081526020016000151581526020016000151581526020016000151581525090565b6000604051905090565b600080fd5b600080fd5b600080fd5b600080fd5b6000601f19601f8301169050919050565b7f4e487b7100000000000000000000000000000000000000000000000000000000600052604160045260246000fd5b610f6582610f1c565b810181811067ffffffffffffffff82111715610f8457610f83610f2d565b5b80604052505050565b6000610f97610efe565b9050610fa38282610f5c565b919050565b600067ffffffffffffffff821115610fc357610fc2610f2d565b5b610fcc82610f1c565b9050602081019050919050565b82818337600083830152505050565b6000610ffb610ff684610fa8565b610f8d565b90508281526020810184848401111561101757611016610f17565b5b611022848285610fd9565b509392505050565b600082601f83011261103f5761103e610f12565b5b813561104f848260208601610fe8565b91505092915050565b60006020828403121561106e5761106d610f08565b5b600082013567ffffffffffffffff81111561108c5761108b610f0d565b5b6110988482850161102a565b91505092915050565b60008115159050919050565b6110b6816110a1565b82525050565b60006020820190506110d160008301846110ad565b92915050565b600067ffffffffffffffff8211156110f2576110f1610f2d565b5b6110fb82610f1c565b9050602081019050919050565b600061111b611116846110d7565b610f8d565b90508281526020810184848401111561113757611136610f17565b5b611142848285610fd9565b509392505050565b600082601f83011261115f5761115e610f12565b5b813561116f848260208601611108565b91505092915050565b6000806040838503121561118f5761118e610f08565b5b600083013567ffffffffffffffff8111156111ad576111ac610f0d565b5b6111b98582860161102a565b925050602083013567ffffffffffffffff8111156111da576111d9610f0d565b5b6111e68582860161114a565b9150509250929050565b600081519050919050565b600082825260208201905092915050565b60005b8381101561122a57808201518184015260208101905061120f565b83811115611239576000848401525b50505050565b600061124a826111f0565b61125481856111fb565b935061126481856020860161120c565b61126d81610f1c565b840191505092915050565b60006020820190508181036000830152611292818461123f565b905092915050565b600073ffffffffffffffffffffffffffffffffffffffff82169050919050565b60006112c58261129a565b9050919050565b6112d5816112ba565b82525050565b60006020820190506112f060008301846112cc565b92915050565b600082825260208201905092915050565b6000611312826111f0565b61131c81856112f6565b935061132c81856020860161120c565b61133581610f1c565b840191505092915050565b600081519050919050565b600082825260208201905092915050565b600061136782611340565b611371818561134b565b935061138181856020860161120c565b61138a81610f1c565b840191505092915050565b61139e816110a1565b82525050565b600060a08301600083015184820360008601526113c18282611307565b915050602083015184820360208601526113db828261135c565b91505060408301516113f06040860182611395565b5060608301516114036060860182611395565b5060808301516114166080860182611395565b508091505092915050565b6000602082019050818103600083015261143b81846113a4565b905092915050565b61144c816112ba565b811461145757600080fd5b50565b60008135905061146981611443565b92915050565b60006020828403121561148557611484610f08565b5b60006114938482850161145a565b91505092915050565b6000819050919050565b6114af8161149c565b82525050565b60006020820190506114ca60008301846114a6565b92915050565b7f4f776e61626c653a2063616c6c6572206973206e6f7420746865206f776e6572600082015250565b60006115066020836111fb565b9150611511826114d0565b602082019050919050565b60006020820190508181036000830152611535816114f9565b9050919050565b7f4e487b7100000000000000000000000000000000000000000000000000000000600052602260045260246000fd5b6000600282049050600182168061158357607f821691505b6020821081036115965761159561153c565b5b50919050565b60008190508160005260206000209050919050565b60006020601f8301049050919050565b600082821b905092915050565b6000600883026115fe7fffffffffffffffffffffffffffffffffffffffffffffffffffffffffffffffff826115c1565b61160886836115c1565b95508019841693508086168417925050509392505050565b6000819050919050565b600061164561164061163b8461149c565b611620565b61149c565b9050919050565b6000819050919050565b61165f8361162a565b61167361166b8261164c565b8484546115ce565b825550505050565b600090565b61168861167b565b611693818484611656565b505050565b5b818110156116b7576116ac600082611680565b600181019050611699565b5050565b601f8211156116fc576116cd8161159c565b6116d6846115b1565b810160208510156116e5578190505b6116f96116f1856115b1565b830182611698565b50505b505050565b600082821c905092915050565b600061171f60001984600802611701565b1980831691505092915050565b6000611738838361170e565b9150826002028217905092915050565b611751826111f0565b67ffffffffffffffff81111561176a57611769610f2d565b5b611774825461156b565b61177f8282856116bb565b600060209050601f8311600181146117b257600084156117a0578287015190505b6117aa858261172c565b865550611812565b601f1984166117c08661159c565b60005b828110156117e8578489015182556001820191506020850194506020810190506117c3565b868310156118055784890151611801601f89168261170e565b8355505b6001600288020188555050505b505050505050565b600081905092915050565b6000611830826111f0565b61183a818561181a565b935061184a81856020860161120c565b80840191505092915050565b60006118628284611825565b915081905092915050565b7f42617474657279207769746820746869732073657269616c206e756d6265722060008201527f616c726561647920726567697374657265640000000000000000000000000000602082015250565b60006118c96032836111fb565b91506118d48261186d565b604082019050919050565b600060208201905081810360008301526118f8816118bc565b9050919050565b60008190508160005260206000209050919050565b601f82111561195557611926816118ff565b61192f846115b1565b8101602085101561193e578190505b61195261194a856115b1565b830182611698565b50505b505050565b61196382611340565b67ffffffffffffffff81111561197c5761197b610f2d565b5b611986825461156b565b611991828285611914565b600060209050601f8311600181146119c457600084156119b2578287015190505b6119bc858261172c565b865550611a24565b601f1984166119d2866118ff565b60005b828110156119fa578489015182556001820191506020850194506020810190506119d5565b86831015611a175784890151611a13601f89168261170e565b8355505b6001600288020188555050505b505050505050565b600082825260208201905092915050565b6000611a4882611340565b611a528185611a2c565b9350611a6281856020860161120c565b611a6b81610f1c565b840191505092915050565b60006020820190508181036000830152611a908184611a3d565b905092915050565b7f42617474657279207769746820746869732073657269616c206e756d6265722060008201527f6e6f742072656769737465726564000000000000000000000000000000000000602082015250565b6000611af4602e836111fb565b9150611aff82611a98565b604082019050919050565b60006020820190508181036000830152611b2381611ae7565b9050919050565b7f42617474657279207769746820746869732073657269616c206e756d6265722060008201527f616c72656164792072656379636c656400000000000000000000000000000000602082015250565b6000611b866030836111fb565b9150611b9182611b2a565b604082019050919050565b60006020820190508181036000830152611bb581611b79565b9050919050565b6000611bc88285611825565b9150611bd48284611825565b91508190509392505050565b7f4f776e61626c653a206e6577206f776e657220697320746865207a65726f206160008201527f6464726573730000000000000000000000000000000000000000000000000000602082015250565b6000611c3c6026836111fb565b9150611c4782611be0565b604082019050919050565b60006020820190508181036000830152611c6b81611c2f565b905091905056fea2646970667358221220afdb3e373e7871ba51a82c2a9b98be99f79c7e46e492031a149b8961b36ac30764736f6c634300080f0033",
  "immutableReferences": {},
  "source": "/**\n *Submitted for verification at Etherscan.io on 2022-06-10\n*/\n\n//SPDX-License-Identifier: UNLICENSED\n\n// File: @openzeppelin/contracts/utils/Context.sol\n\npragma solidity ^0.8.0;\n\n/**\n * @dev Provides information about the current execution context, including the\n * sender of the transaction and its data. While these are generally available\n * via msg.sender and msg.data, they should not be accessed in such a direct\n * manner, since when dealing with meta-transactions the account sending and\n * paying for execution may not be the actual sender (as far as an application\n * is concerned).\n *\n * This contract is only required for intermediate, library-like contracts.\n */\nabstract contract Context {\n    function _msgSender() internal view virtual returns (address) {\n        return msg.sender;\n    }\n\n    function _msgData() internal view virtual returns (bytes calldata) {\n        return msg.data;\n    }\n}\n\n// File: @openzeppelin/contracts/access/Ownable.sol\n\n// OpenZeppelin Contracts v4.4.1 (access/Ownable.sol)\n\npragma solidity ^0.8.0;\n\n\n/**\n * @dev Contract module which provides a basic access control mechanism, where\n * there is an account (an owner) that can be granted exclusive access to\n * specific functions.\n *\n * By default, the owner account will be the one that deploys the contract. This\n * can later be changed with {transferOwnership}.\n *\n * This module is used through inheritance. It will make available the modifier\n * `onlyOwner`, which can be applied to your functions to restrict their use to\n * the owner.\n */\nabstract contract Ownable is Context {\n    address private _owner;\n\n    event OwnershipTransferred(address indexed previousOwner, address indexed newOwner);\n\n    /**\n     * @dev Initializes the contract setting the deployer as the initial owner.\n     */\n    constructor() {\n        _transferOwnership(_msgSender());\n    }\n\n    /**\n     * @dev Returns the address of the current owner.\n     */\n    function owner() public view virtual returns (address) {\n        return _owner;\n    }\n\n    /**\n     * @dev Throws if called by any account other than the owner.\n     */\n    modifier onlyOwner() {\n        require(owner() == _msgSender(), \"Ownable: caller is not the owner\");\n        _;\n    }\n\n    /**\n     * @dev Leaves the contract without owner. It will not be possible to call\n     * `onlyOwner` functions anymore. Can only be called by the current owner.\n     *\n     * NOTE: Renouncing ownership will leave the contract without an owner,\n     * thereby removing any functionality that is only available to the owner.\n     */\n    function renounceOwnership() public virtual onlyOwner {\n        _transferOwnership(address(0));\n    }\n\n    /**\n     * @dev Transfers ownership of the contract to a new account (`newOwner`).\n     * Can only be called by the current owner.\n     */\n    function transferOwnership(address newOwner) public virtual onlyOwner {\n        require(newOwner != address(0), \"Ownable: new owner is the zero address\");\n        _transferOwnership(newOwner);\n    }\n\n    /**\n     * @dev Transfers ownership of the contract to a new account (`newOwner`).\n     * Internal function without access restriction.\n     */\n    function _transferOwnership(address newOwner) internal virtual {\n        address oldOwner = _owner;\n        _owner = newOwner;\n        emit OwnershipTransferred(oldOwner, newOwner);\n    }\n}\n\n// File: @openzeppelin/contracts/utils/Counters.sol\n\n// OpenZeppelin Contracts v4.4.1 (utils/Counters.sol)\n\npragma solidity ^0.8.0;\n\n/**\n * @title Counters\n * @author Matt Condon (@shrugs)\n * @dev Provides counters that can only be incremented, decremented or reset. This can be used e.g. to track the number\n * of elements in a mapping, issuing ERC721 ids, or counting request ids.\n *\n * Include with `using Counters for Counters.Counter;`\n */\nlibrary Counters {\n    struct Counter {\n        // This variable should never be directly accessed by users of the library: interactions must be restricted to\n        // the library's function. As of Solidity v0.5.2, this cannot be enforced, though there is a proposal to add\n        // this feature: see https://github.com/ethereum/solidity/issues/4637\n        uint256 _value; // default: 0\n    }\n\n    function current(Counter storage counter) internal view returns (uint256) {\n        return counter._value;\n    }\n\n    function increment(Counter storage counter) internal {\n        unchecked {\n            counter._value += 1;\n        }\n    }\n\n    function decrement(Counter storage counter) internal {\n        uint256 value = counter._value;\n        require(value > 0, \"Counter: decrement overflow\");\n        unchecked {\n            counter._value = value - 1;\n        }\n    }\n\n    function reset(Counter storage counter) internal {\n        counter._value = 0;\n    }\n}\n\n// File: contracts/battery-chain-2.sol\n\npragma solidity >=0.8.0;\n\n/** @title Battery Chain contract */\ncontract BatteryChain is Ownable {\n    \n    struct Battery {\n      string serialNumber;\n      bytes data;\n      bool isRegistered;\n      bool isShipped;\n      bool isRecycled;\n    }\n\n    using Counters for Counters.Counter;\n\n    Counters.Counter public _totalBatteries;\n    \n    mapping(string => Battery) private battery;\n\n    string private _baseBatteryURI;\n\n    event Registered(string indexed serialNumber, bytes data);\n\n    event Shipped(string indexed serialNumber, bytes data);\n\n    event Recycled(string indexed serialNumber, bytes data);\n\n    /**\n     * Batter URIs will be autogenerated based on `baseURI` and their Battery serielNumber.\n     * See {ERC721-tokenURI}.\n     */\n    constructor(string memory baseBatteryURI) {\n        _baseBatteryURI = baseBatteryURI;\n    }\n\n    /**\n     * @dev Check if battery is registered or not\n     */\n    function _isRegistered(string memory  serialNumber) public view virtual returns(bool) {\n        return battery[serialNumber].isRegistered;\n    }\n\n    /**\n     * @dev Check if battery is shiped or not\n     */\n    function _isShipped(string memory  serialNumber) public view virtual returns(bool) {\n        return battery[serialNumber].isShipped;\n    }\n\n    /**\n     * @dev Check if battery is recycled or not\n     */\n    function _isRecycled(string memory  serialNumber) public view virtual returns(bool) {\n        return battery[serialNumber].isRecycled;\n    }\n\n    /**\n     * @dev See {IERC721Metadata-tokenURI}.\n     */\n    function batteryURI(string memory serialNumber) external view returns (string memory) {\n        _isRegistered(serialNumber);\n\n        string memory baseURI = _baseURI();\n        return bytes(baseURI).length > 0 ? string(abi.encodePacked(baseURI, serialNumber)) : \"\";\n    }\n\n    /**\n     * @dev Base URI for computing {serialNumber}. If set, the resulting URI for each\n     * battery will be the concatenation of the `baseURI` and the `serialNumber`. Empty\n     * by default, can be overridden in child contracts.\n     */\n    function _baseURI() internal view virtual returns (string memory) {\n        return _baseBatteryURI;\n    }\n\n    /**\n    * Update battery baseURI by owner only\n    */\n    function updateBaseUri(string memory baseBatteryURI) onlyOwner external {\n        _baseBatteryURI = baseBatteryURI;\n    }\n\n    /**\n    * Register battery on blockchain\n    */\n    function register(string memory serialNumber, bytes memory data) onlyOwner external {\n        require(battery[serialNumber].isRegistered == false, \"Battery with this serial number already registered\");\n\n        battery[serialNumber].serialNumber =  serialNumber;\n        battery[serialNumber].data =  data;\n        battery[serialNumber].isRegistered =  true;\n\n        emit Registered(serialNumber, data);\n        _totalBatteries.increment();\n    }\n\n    /**\n    * Ship battery along with any device to dealer/distributer\n    */\n    function ship(string memory serialNumber, bytes memory data) onlyOwner external {\n        require(battery[serialNumber].isRegistered == true, \"Battery with this serial number not registered\");\n        require(battery[serialNumber].isRecycled == false, \"Battery with this serial number already recycled\");\n\n        battery[serialNumber].isShipped =  true;\n        emit Shipped(serialNumber, data);\n    }\n\n    /**\n    * Recycle battery on blockchain\n    */\n    function recycle(string memory serialNumber, bytes memory data) onlyOwner external {\n        require(battery[serialNumber].isRegistered == true, \"Battery with this serial number not registered\");\n        require(battery[serialNumber].isRecycled == false, \"Battery with this serial number already recycled\");\n\n        battery[serialNumber].isRecycled =  true;\n        emit Recycled(serialNumber, data);\n    }\n\n    /**\n     * @dev Get Battery details\n     */\n    function getBattery(string memory serialNumber) external view returns (Battery memory) {\n       return battery[serialNumber];\n    }\n   \n}",
  "sourcePath": "/home/coeus/coeus/Tickets/contract_deployment/contracts/BatteryChain.sol",
  "compiler": {
    "name": "solc",
    "version": "0.8.15+commit.e14f2714.Emscripten.clang"
  },
  "schemaVersion": "3.4.7",
  "updatedAt": "2022-06-16T12:45:47.460Z",
  "networkType": "ethereum",
  "devdoc": {
    "kind": "dev",
    "methods": {
      "_isRecycled(string)": {
        "details": "Check if battery is recycled or not"
      },
      "_isRegistered(string)": {
        "details": "Check if battery is registered or not"
      },
      "_isShipped(string)": {
        "details": "Check if battery is shiped or not"
      },
      "batteryURI(string)": {
        "details": "See {IERC721Metadata-tokenURI}."
      },
      "getBattery(string)": {
        "details": "Get Battery details"
      },
      "owner()": {
        "details": "Returns the address of the current owner."
      },
      "renounceOwnership()": {
        "details": "Leaves the contract without owner. It will not be possible to call `onlyOwner` functions anymore. Can only be called by the current owner. NOTE: Renouncing ownership will leave the contract without an owner, thereby removing any functionality that is only available to the owner."
      },
      "transferOwnership(address)": {
        "details": "Transfers ownership of the contract to a new account (`newOwner`). Can only be called by the current owner."
      }
    },
    "title": "Battery Chain contract ",
    "version": 1
  },
  "userdoc": {
    "kind": "user",
    "methods": {
      "constructor": {
        "notice": "Batter URIs will be autogenerated based on `baseURI` and their Battery serielNumber. See {ERC721-tokenURI}."
      },
      "recycle(string,bytes)": {
        "notice": "Recycle battery on blockchain"
      },
      "register(string,bytes)": {
        "notice": "Register battery on blockchain"
      },
      "ship(string,bytes)": {
        "notice": "Ship battery along with any device to dealer/distributer"
      },
      "updateBaseUri(string)": {
        "notice": "Update battery baseURI by owner only"
      }
    },
    "version": 1
  }
}