{
  "contractName": "ClimaCoin",
  "abi": [
    {
      "inputs": [
        {
          "internalType": "string",
          "name": "name",
          "type": "string"
        },
        {
          "internalType": "string",
          "name": "symbol",
          "type": "string"
        }
      ],
      "stateMutability": "nonpayable",
      "type": "constructor"
    },
    {
      "anonymous": false,
      "inputs": [
        {
          "indexed": true,
          "internalType": "address",
          "name": "owner",
          "type": "address"
        },
        {
          "indexed": true,
          "internalType": "address",
          "name": "spender",
          "type": "address"
        },
        {
          "indexed": false,
          "internalType": "uint256",
          "name": "value",
          "type": "uint256"
        }
      ],
      "name": "Approval",
      "type": "event"
    },
    {
      "anonymous": false,
      "inputs": [
        {
          "indexed": false,
          "internalType": "address",
          "name": "account",
          "type": "address"
        }
      ],
      "name": "Paused",
      "type": "event"
    },
    {
      "anonymous": false,
      "inputs": [
        {
          "indexed": true,
          "internalType": "bytes32",
          "name": "role",
          "type": "bytes32"
        },
        {
          "indexed": true,
          "internalType": "bytes32",
          "name": "previousAdminRole",
          "type": "bytes32"
        },
        {
          "indexed": true,
          "internalType": "bytes32",
          "name": "newAdminRole",
          "type": "bytes32"
        }
      ],
      "name": "RoleAdminChanged",
      "type": "event"
    },
    {
      "anonymous": false,
      "inputs": [
        {
          "indexed": true,
          "internalType": "bytes32",
          "name": "role",
          "type": "bytes32"
        },
        {
          "indexed": true,
          "internalType": "address",
          "name": "account",
          "type": "address"
        },
        {
          "indexed": true,
          "internalType": "address",
          "name": "sender",
          "type": "address"
        }
      ],
      "name": "RoleGranted",
      "type": "event"
    },
    {
      "anonymous": false,
      "inputs": [
        {
          "indexed": true,
          "internalType": "bytes32",
          "name": "role",
          "type": "bytes32"
        },
        {
          "indexed": true,
          "internalType": "address",
          "name": "account",
          "type": "address"
        },
        {
          "indexed": true,
          "internalType": "address",
          "name": "sender",
          "type": "address"
        }
      ],
      "name": "RoleRevoked",
      "type": "event"
    },
    {
      "anonymous": false,
      "inputs": [
        {
          "indexed": true,
          "internalType": "address",
          "name": "from",
          "type": "address"
        },
        {
          "indexed": true,
          "internalType": "address",
          "name": "to",
          "type": "address"
        },
        {
          "indexed": false,
          "internalType": "uint256",
          "name": "value",
          "type": "uint256"
        }
      ],
      "name": "Transfer",
      "type": "event"
    },
    {
      "anonymous": false,
      "inputs": [
        {
          "indexed": false,
          "internalType": "address",
          "name": "account",
          "type": "address"
        }
      ],
      "name": "Unpaused",
      "type": "event"
    },
    {
      "stateMutability": "payable",
      "type": "fallback"
    },
    {
      "inputs": [],
      "name": "DEFAULT_ADMIN_ROLE",
      "outputs": [
        {
          "internalType": "bytes32",
          "name": "",
          "type": "bytes32"
        }
      ],
      "stateMutability": "view",
      "type": "function"
    },
    {
      "inputs": [],
      "name": "MINTER_ROLE",
      "outputs": [
        {
          "internalType": "bytes32",
          "name": "",
          "type": "bytes32"
        }
      ],
      "stateMutability": "view",
      "type": "function"
    },
    {
      "inputs": [],
      "name": "PAUSER_ROLE",
      "outputs": [
        {
          "internalType": "bytes32",
          "name": "",
          "type": "bytes32"
        }
      ],
      "stateMutability": "view",
      "type": "function"
    },
    {
      "inputs": [
        {
          "internalType": "address",
          "name": "owner",
          "type": "address"
        },
        {
          "internalType": "address",
          "name": "spender",
          "type": "address"
        }
      ],
      "name": "allowance",
      "outputs": [
        {
          "internalType": "uint256",
          "name": "",
          "type": "uint256"
        }
      ],
      "stateMutability": "view",
      "type": "function"
    },
    {
      "inputs": [
        {
          "internalType": "address",
          "name": "spender",
          "type": "address"
        },
        {
          "internalType": "uint256",
          "name": "amount",
          "type": "uint256"
        }
      ],
      "name": "approve",
      "outputs": [
        {
          "internalType": "bool",
          "name": "",
          "type": "bool"
        }
      ],
      "stateMutability": "nonpayable",
      "type": "function"
    },
    {
      "inputs": [
        {
          "internalType": "address",
          "name": "account",
          "type": "address"
        }
      ],
      "name": "balanceOf",
      "outputs": [
        {
          "internalType": "uint256",
          "name": "",
          "type": "uint256"
        }
      ],
      "stateMutability": "view",
      "type": "function"
    },
    {
      "inputs": [
        {
          "internalType": "uint256",
          "name": "amount",
          "type": "uint256"
        }
      ],
      "name": "burn",
      "outputs": [],
      "stateMutability": "nonpayable",
      "type": "function"
    },
    {
      "inputs": [
        {
          "internalType": "address",
          "name": "account",
          "type": "address"
        },
        {
          "internalType": "uint256",
          "name": "amount",
          "type": "uint256"
        }
      ],
      "name": "burnFrom",
      "outputs": [],
      "stateMutability": "nonpayable",
      "type": "function"
    },
    {
      "inputs": [],
      "name": "cap",
      "outputs": [
        {
          "internalType": "uint256",
          "name": "",
          "type": "uint256"
        }
      ],
      "stateMutability": "view",
      "type": "function"
    },
    {
      "inputs": [],
      "name": "decimals",
      "outputs": [
        {
          "internalType": "uint8",
          "name": "",
          "type": "uint8"
        }
      ],
      "stateMutability": "view",
      "type": "function"
    },
    {
      "inputs": [
        {
          "internalType": "address",
          "name": "spender",
          "type": "address"
        },
        {
          "internalType": "uint256",
          "name": "subtractedValue",
          "type": "uint256"
        }
      ],
      "name": "decreaseAllowance",
      "outputs": [
        {
          "internalType": "bool",
          "name": "",
          "type": "bool"
        }
      ],
      "stateMutability": "nonpayable",
      "type": "function"
    },
    {
      "inputs": [
        {
          "internalType": "bytes32",
          "name": "role",
          "type": "bytes32"
        }
      ],
      "name": "getRoleAdmin",
      "outputs": [
        {
          "internalType": "bytes32",
          "name": "",
          "type": "bytes32"
        }
      ],
      "stateMutability": "view",
      "type": "function"
    },
    {
      "inputs": [
        {
          "internalType": "bytes32",
          "name": "role",
          "type": "bytes32"
        },
        {
          "internalType": "uint256",
          "name": "index",
          "type": "uint256"
        }
      ],
      "name": "getRoleMember",
      "outputs": [
        {
          "internalType": "address",
          "name": "",
          "type": "address"
        }
      ],
      "stateMutability": "view",
      "type": "function"
    },
    {
      "inputs": [
        {
          "internalType": "bytes32",
          "name": "role",
          "type": "bytes32"
        }
      ],
      "name": "getRoleMemberCount",
      "outputs": [
        {
          "internalType": "uint256",
          "name": "",
          "type": "uint256"
        }
      ],
      "stateMutability": "view",
      "type": "function"
    },
    {
      "inputs": [
        {
          "internalType": "bytes32",
          "name": "role",
          "type": "bytes32"
        },
        {
          "internalType": "address",
          "name": "account",
          "type": "address"
        }
      ],
      "name": "grantRole",
      "outputs": [],
      "stateMutability": "nonpayable",
      "type": "function"
    },
    {
      "inputs": [
        {
          "internalType": "bytes32",
          "name": "role",
          "type": "bytes32"
        },
        {
          "internalType": "address",
          "name": "account",
          "type": "address"
        }
      ],
      "name": "hasRole",
      "outputs": [
        {
          "internalType": "bool",
          "name": "",
          "type": "bool"
        }
      ],
      "stateMutability": "view",
      "type": "function"
    },
    {
      "inputs": [
        {
          "internalType": "address",
          "name": "spender",
          "type": "address"
        },
        {
          "internalType": "uint256",
          "name": "addedValue",
          "type": "uint256"
        }
      ],
      "name": "increaseAllowance",
      "outputs": [
        {
          "internalType": "bool",
          "name": "",
          "type": "bool"
        }
      ],
      "stateMutability": "nonpayable",
      "type": "function"
    },
    {
      "inputs": [],
      "name": "name",
      "outputs": [
        {
          "internalType": "string",
          "name": "",
          "type": "string"
        }
      ],
      "stateMutability": "view",
      "type": "function"
    },
    {
      "inputs": [],
      "name": "paused",
      "outputs": [
        {
          "internalType": "bool",
          "name": "",
          "type": "bool"
        }
      ],
      "stateMutability": "view",
      "type": "function"
    },
    {
      "inputs": [
        {
          "internalType": "bytes32",
          "name": "role",
          "type": "bytes32"
        },
        {
          "internalType": "address",
          "name": "account",
          "type": "address"
        }
      ],
      "name": "renounceRole",
      "outputs": [],
      "stateMutability": "nonpayable",
      "type": "function"
    },
    {
      "inputs": [
        {
          "internalType": "bytes32",
          "name": "role",
          "type": "bytes32"
        },
        {
          "internalType": "address",
          "name": "account",
          "type": "address"
        }
      ],
      "name": "revokeRole",
      "outputs": [],
      "stateMutability": "nonpayable",
      "type": "function"
    },
    {
      "inputs": [
        {
          "internalType": "bytes4",
          "name": "interfaceId",
          "type": "bytes4"
        }
      ],
      "name": "supportsInterface",
      "outputs": [
        {
          "internalType": "bool",
          "name": "",
          "type": "bool"
        }
      ],
      "stateMutability": "view",
      "type": "function"
    },
    {
      "inputs": [],
      "name": "symbol",
      "outputs": [
        {
          "internalType": "string",
          "name": "",
          "type": "string"
        }
      ],
      "stateMutability": "view",
      "type": "function"
    },
    {
      "inputs": [],
      "name": "totalSupply",
      "outputs": [
        {
          "internalType": "uint256",
          "name": "",
          "type": "uint256"
        }
      ],
      "stateMutability": "view",
      "type": "function"
    },
    {
      "inputs": [
        {
          "internalType": "address",
          "name": "to",
          "type": "address"
        },
        {
          "internalType": "uint256",
          "name": "amount",
          "type": "uint256"
        }
      ],
      "name": "transfer",
      "outputs": [
        {
          "internalType": "bool",
          "name": "",
          "type": "bool"
        }
      ],
      "stateMutability": "nonpayable",
      "type": "function"
    },
    {
      "inputs": [
        {
          "internalType": "address",
          "name": "from",
          "type": "address"
        },
        {
          "internalType": "address",
          "name": "to",
          "type": "address"
        },
        {
          "internalType": "uint256",
          "name": "amount",
          "type": "uint256"
        }
      ],
      "name": "transferFrom",
      "outputs": [
        {
          "internalType": "bool",
          "name": "",
          "type": "bool"
        }
      ],
      "stateMutability": "nonpayable",
      "type": "function"
    },
    {
      "stateMutability": "payable",
      "type": "receive"
    },
    {
      "inputs": [
        {
          "internalType": "address",
          "name": "_to",
          "type": "address"
        },
        {
          "internalType": "uint256",
          "name": "_value",
          "type": "uint256"
        }
      ],
      "name": "transferBalanceTo",
      "outputs": [],
      "stateMutability": "nonpayable",
      "type": "function"
    },
    {
      "inputs": [
        {
          "internalType": "address",
          "name": "to",
          "type": "address"
        },
        {
          "internalType": "uint256",
          "name": "amount",
          "type": "uint256"
        }
      ],
      "name": "mint",
      "outputs": [],
      "stateMutability": "nonpayable",
      "type": "function"
    },
    {
      "inputs": [],
      "name": "pause",
      "outputs": [],
      "stateMutability": "nonpayable",
      "type": "function"
    },
    {
      "inputs": [],
      "name": "unpause",
      "outputs": [],
      "stateMutability": "nonpayable",
      "type": "function"
    }
  ],
  "bytecode": "0x60a06040523480156200001157600080fd5b50604051620041a7380380620041a78339818101604052810190620000379190620005fc565b620000726383a6b53c62000050620001b260201b60201c565b60ff16600a6200006191906200080e565b620001bb60201b62000faa1760201c565b8282816005908162000085919062000aa0565b50806006908162000097919062000aa0565b5050506000600760006101000a81548160ff02191690831515021790555060008111620000fb576040517f08c379a0000000000000000000000000000000000000000000000000000000008152600401620000f29062000be8565b60405180910390fd5b806080818152505050620001286000801b6200011c620001d360201b60201c565b620001db60201b60201c565b620001697f9f2df0fed2c77648de5860a4cc508cd0818c85b8b8a1ab4ceeef8d981c8956a66200015d620001d360201b60201c565b620001db60201b60201c565b620001aa7f65d7a28e3265b37a6474929f336521b332c1681b933f6cb9f3376673440d862a6200019e620001d360201b60201c565b620001db60201b60201c565b505062000c6b565b60006012905090565b60008183620001cb919062000c0a565b905092915050565b600033905090565b620001ed8282620001f160201b60201c565b5050565b6200020882826200023960201b62000fc01760201c565b6200023481600160008581526020019081526020016000206200032a60201b620010a01790919060201c565b505050565b6200024b82826200036260201b60201c565b6200032657600160008084815260200190815260200160002060000160008373ffffffffffffffffffffffffffffffffffffffff1673ffffffffffffffffffffffffffffffffffffffff16815260200190815260200160002060006101000a81548160ff021916908315150217905550620002cb620001d360201b60201c565b73ffffffffffffffffffffffffffffffffffffffff168173ffffffffffffffffffffffffffffffffffffffff16837f2f8788117e7eff1d82e926ec794901d17c78024a50270940304540a733656f0d60405160405180910390a45b5050565b60006200035a836000018373ffffffffffffffffffffffffffffffffffffffff1660001b620003cc60201b60201c565b905092915050565b600080600084815260200190815260200160002060000160008373ffffffffffffffffffffffffffffffffffffffff1673ffffffffffffffffffffffffffffffffffffffff16815260200190815260200160002060009054906101000a900460ff16905092915050565b6000620003e083836200044660201b60201c565b6200043b57826000018290806001815401808255809150506001900390600052602060002001600090919091909150558260000180549050836001016000848152602001908152602001600020819055506001905062000440565b600090505b92915050565b600080836001016000848152602001908152602001600020541415905092915050565b6000604051905090565b600080fd5b600080fd5b600080fd5b600080fd5b6000601f19601f8301169050919050565b7f4e487b7100000000000000000000000000000000000000000000000000000000600052604160045260246000fd5b620004d28262000487565b810181811067ffffffffffffffff82111715620004f457620004f362000498565b5b80604052505050565b60006200050962000469565b9050620005178282620004c7565b919050565b600067ffffffffffffffff8211156200053a576200053962000498565b5b620005458262000487565b9050602081019050919050565b60005b838110156200057257808201518184015260208101905062000555565b60008484015250505050565b6000620005956200058f846200051c565b620004fd565b905082815260208101848484011115620005b457620005b362000482565b5b620005c184828562000552565b509392505050565b600082601f830112620005e157620005e06200047d565b5b8151620005f38482602086016200057e565b91505092915050565b6000806040838503121562000616576200061562000473565b5b600083015167ffffffffffffffff81111562000637576200063662000478565b5b6200064585828601620005c9565b925050602083015167ffffffffffffffff81111562000669576200066862000478565b5b6200067785828601620005c9565b9150509250929050565b7f4e487b7100000000000000000000000000000000000000000000000000000000600052601160045260246000fd5b60008160011c9050919050565b6000808291508390505b60018511156200070f57808604811115620006e757620006e662000681565b5b6001851615620006f75780820291505b80810290506200070785620006b0565b9450620006c7565b94509492505050565b6000826200072a5760019050620007fd565b816200073a5760009050620007fd565b81600181146200075357600281146200075e5762000794565b6001915050620007fd565b60ff84111562000773576200077262000681565b5b8360020a9150848211156200078d576200078c62000681565b5b50620007fd565b5060208310610133831016604e8410600b8410161715620007ce5782820a905083811115620007c857620007c762000681565b5b620007fd565b620007dd8484846001620006bd565b92509050818404811115620007f757620007f662000681565b5b81810290505b9392505050565b6000819050919050565b60006200081b8262000804565b9150620008288362000804565b9250620008577fffffffffffffffffffffffffffffffffffffffffffffffffffffffffffffffff848462000718565b905092915050565b600081519050919050565b7f4e487b7100000000000000000000000000000000000000000000000000000000600052602260045260246000fd5b60006002820490506001821680620008b257607f821691505b602082108103620008c857620008c76200086a565b5b50919050565b60008190508160005260206000209050919050565b60006020601f8301049050919050565b600082821b905092915050565b600060088302620009327fffffffffffffffffffffffffffffffffffffffffffffffffffffffffffffffff82620008f3565b6200093e8683620008f3565b95508019841693508086168417925050509392505050565b6000819050919050565b6000620009816200097b620009758462000804565b62000956565b62000804565b9050919050565b6000819050919050565b6200099d8362000960565b620009b5620009ac8262000988565b84845462000900565b825550505050565b600090565b620009cc620009bd565b620009d981848462000992565b505050565b5b8181101562000a0157620009f5600082620009c2565b600181019050620009df565b5050565b601f82111562000a505762000a1a81620008ce565b62000a2584620008e3565b8101602085101562000a35578190505b62000a4d62000a4485620008e3565b830182620009de565b50505b505050565b600082821c905092915050565b600062000a756000198460080262000a55565b1980831691505092915050565b600062000a90838362000a62565b9150826002028217905092915050565b62000aab826200085f565b67ffffffffffffffff81111562000ac75762000ac662000498565b5b62000ad3825462000899565b62000ae082828562000a05565b600060209050601f83116001811462000b18576000841562000b03578287015190505b62000b0f858262000a82565b86555062000b7f565b601f19841662000b2886620008ce565b60005b8281101562000b525784890151825560018201915060208501945060208101905062000b2b565b8683101562000b72578489015162000b6e601f89168262000a62565b8355505b6001600288020188555050505b505050505050565b600082825260208201905092915050565b7f45524332304361707065643a2063617020697320300000000000000000000000600082015250565b600062000bd060158362000b87565b915062000bdd8262000b98565b602082019050919050565b6000602082019050818103600083015262000c038162000bc1565b9050919050565b600062000c178262000804565b915062000c248362000804565b9250817fffffffffffffffffffffffffffffffffffffffffffffffffffffffffffffffff048311821515161562000c605762000c5f62000681565b5b828202905092915050565b60805161352062000c87600039600061093b01526135206000f3fe6080604052600436106101d15760003560e01c806370a08231116100f7578063a457c2d711610095578063d539139311610064578063d5391393146106ca578063d547741f146106f5578063dd62ed3e1461071e578063e63ab1e91461075b576101d8565b8063a457c2d7146105ea578063a9059cbb14610627578063b2f46edb14610664578063ca15c8731461068d576101d8565b80639010d07c116100d15780639010d07c1461051a57806391d148541461055757806395d89b4114610594578063a217fddf146105bf576101d8565b806370a082311461049d57806379cc6790146104da5780638456cb5914610503576101d8565b8063313ce5671161016f5780633f4ba83a1161013e5780633f4ba83a1461040957806340c10f191461042057806342966c68146104495780635c975abb14610472576101d8565b8063313ce5671461034d578063355274ea1461037857806336568abe146103a357806339509351146103cc576101d8565b806318160ddd116101ab57806318160ddd1461027f57806323b872dd146102aa578063248a9ca3146102e75780632f2ff15d14610324576101d8565b806301ffc9a7146101da57806306fdde0314610217578063095ea7b314610242576101d8565b366101d857005b005b3480156101e657600080fd5b5061020160048036038101906101fc91906122e3565b610786565b60405161020e919061232b565b60405180910390f35b34801561022357600080fd5b5061022c610800565b60405161023991906123d6565b60405180910390f35b34801561024e57600080fd5b506102696004803603810190610264919061248c565b610892565b604051610276919061232b565b60405180910390f35b34801561028b57600080fd5b506102946108b5565b6040516102a191906124db565b60405180910390f35b3480156102b657600080fd5b506102d160048036038101906102cc91906124f6565b6108bf565b6040516102de919061232b565b60405180910390f35b3480156102f357600080fd5b5061030e6004803603810190610309919061257f565b6108ee565b60405161031b91906125bb565b60405180910390f35b34801561033057600080fd5b5061034b600480360381019061034691906125d6565b61090d565b005b34801561035957600080fd5b5061036261092e565b60405161036f9190612632565b60405180910390f35b34801561038457600080fd5b5061038d610937565b60405161039a91906124db565b60405180910390f35b3480156103af57600080fd5b506103ca60048036038101906103c591906125d6565b61095f565b005b3480156103d857600080fd5b506103f360048036038101906103ee919061248c565b6109e2565b604051610400919061232b565b60405180910390f35b34801561041557600080fd5b5061041e610a19565b005b34801561042c57600080fd5b506104476004803603810190610442919061248c565b610a93565b005b34801561045557600080fd5b50610470600480360381019061046b919061264d565b610b11565b005b34801561047e57600080fd5b50610487610b25565b604051610494919061232b565b60405180910390f35b3480156104a957600080fd5b506104c460048036038101906104bf919061267a565b610b3c565b6040516104d191906124db565b60405180910390f35b3480156104e657600080fd5b5061050160048036038101906104fc919061248c565b610b85565b005b34801561050f57600080fd5b50610518610ba5565b005b34801561052657600080fd5b50610541600480360381019061053c91906126a7565b610c1f565b60405161054e91906126f6565b60405180910390f35b34801561056357600080fd5b5061057e600480360381019061057991906125d6565b610c4e565b60405161058b919061232b565b60405180910390f35b3480156105a057600080fd5b506105a9610cb8565b6040516105b691906123d6565b60405180910390f35b3480156105cb57600080fd5b506105d4610d4a565b6040516105e191906125bb565b60405180910390f35b3480156105f657600080fd5b50610611600480360381019061060c919061248c565b610d51565b60405161061e919061232b565b60405180910390f35b34801561063357600080fd5b5061064e6004803603810190610649919061248c565b610dc8565b60405161065b919061232b565b60405180910390f35b34801561067057600080fd5b5061068b6004803603810190610686919061248c565b610deb565b005b34801561069957600080fd5b506106b460048036038101906106af919061257f565b610e96565b6040516106c191906124db565b60405180910390f35b3480156106d657600080fd5b506106df610eba565b6040516106ec91906125bb565b60405180910390f35b34801561070157600080fd5b5061071c600480360381019061071791906125d6565b610ede565b005b34801561072a57600080fd5b5061074560048036038101906107409190612711565b610eff565b60405161075291906124db565b60405180910390f35b34801561076757600080fd5b50610770610f86565b60405161077d91906125bb565b60405180910390f35b60007f5a05180f000000000000000000000000000000000000000000000000000000007bffffffffffffffffffffffffffffffffffffffffffffffffffffffff1916827bffffffffffffffffffffffffffffffffffffffffffffffffffffffff191614806107f957506107f8826110d0565b5b9050919050565b60606005805461080f90612780565b80601f016020809104026020016040519081016040528092919081815260200182805461083b90612780565b80156108885780601f1061085d57610100808354040283529160200191610888565b820191906000526020600020905b81548152906001019060200180831161086b57829003601f168201915b5050505050905090565b60008061089d61114a565b90506108aa818585611152565b600191505092915050565b6000600454905090565b6000806108ca61114a565b90506108d785828561131b565b6108e28585856113a7565b60019150509392505050565b6000806000838152602001908152602001600020600101549050919050565b610916826108ee565b61091f81611629565b610929838361163d565b505050565b60006012905090565b60007f0000000000000000000000000000000000000000000000000000000000000000905090565b61096761114a565b73ffffffffffffffffffffffffffffffffffffffff168173ffffffffffffffffffffffffffffffffffffffff16146109d4576040517f08c379a00000000000000000000000000000000000000000000000000000000081526004016109cb90612823565b60405180910390fd5b6109de8282611671565b5050565b6000806109ed61114a565b9050610a0e8185856109ff8589610eff565b610a099190612872565b611152565b600191505092915050565b610a4a7f65d7a28e3265b37a6474929f336521b332c1681b933f6cb9f3376673440d862a610a4561114a565b610c4e565b610a89576040517f08c379a0000000000000000000000000000000000000000000000000000000008152600401610a8090612918565b60405180910390fd5b610a916116a5565b565b610ac47f9f2df0fed2c77648de5860a4cc508cd0818c85b8b8a1ab4ceeef8d981c8956a6610abf61114a565b610c4e565b610b03576040517f08c379a0000000000000000000000000000000000000000000000000000000008152600401610afa906129aa565b60405180910390fd5b610b0d8282611708565b5050565b610b22610b1c61114a565b82611716565b50565b6000600760009054906101000a900460ff16905090565b6000600260008373ffffffffffffffffffffffffffffffffffffffff1673ffffffffffffffffffffffffffffffffffffffff168152602001908152602001600020549050919050565b610b9782610b9161114a565b8361131b565b610ba18282611716565b5050565b610bd67f65d7a28e3265b37a6474929f336521b332c1681b933f6cb9f3376673440d862a610bd161114a565b610c4e565b610c15576040517f08c379a0000000000000000000000000000000000000000000000000000000008152600401610c0c90612a3c565b60405180910390fd5b610c1d6118ee565b565b6000610c46826001600086815260200190815260200160002061195190919063ffffffff16565b905092915050565b600080600084815260200190815260200160002060000160008373ffffffffffffffffffffffffffffffffffffffff1673ffffffffffffffffffffffffffffffffffffffff16815260200190815260200160002060009054906101000a900460ff16905092915050565b606060068054610cc790612780565b80601f0160208091040260200160405190810160405280929190818152602001828054610cf390612780565b8015610d405780601f10610d1557610100808354040283529160200191610d40565b820191906000526020600020905b815481529060010190602001808311610d2357829003601f168201915b5050505050905090565b6000801b81565b600080610d5c61114a565b90506000610d6a8286610eff565b905083811015610daf576040517f08c379a0000000000000000000000000000000000000000000000000000000008152600401610da690612ace565b60405180910390fd5b610dbc8286868403611152565b60019250505092915050565b600080610dd361114a565b9050610de08185856113a7565b600191505092915050565b610dff6000801b610dfa61114a565b610c4e565b610e3e576040517f08c379a0000000000000000000000000000000000000000000000000000000008152600401610e3590612b60565b60405180910390fd5b47811115610e4b57600080fd5b8173ffffffffffffffffffffffffffffffffffffffff166108fc829081150290604051600060405180830381858888f19350505050158015610e91573d6000803e3d6000fd5b505050565b6000610eb36001600084815260200190815260200160002061196b565b9050919050565b7f9f2df0fed2c77648de5860a4cc508cd0818c85b8b8a1ab4ceeef8d981c8956a681565b610ee7826108ee565b610ef081611629565b610efa8383611671565b505050565b6000600360008473ffffffffffffffffffffffffffffffffffffffff1673ffffffffffffffffffffffffffffffffffffffff16815260200190815260200160002060008373ffffffffffffffffffffffffffffffffffffffff1673ffffffffffffffffffffffffffffffffffffffff16815260200190815260200160002054905092915050565b7f65d7a28e3265b37a6474929f336521b332c1681b933f6cb9f3376673440d862a81565b60008183610fb89190612b80565b905092915050565b610fca8282610c4e565b61109c57600160008084815260200190815260200160002060000160008373ffffffffffffffffffffffffffffffffffffffff1673ffffffffffffffffffffffffffffffffffffffff16815260200190815260200160002060006101000a81548160ff02191690831515021790555061104161114a565b73ffffffffffffffffffffffffffffffffffffffff168173ffffffffffffffffffffffffffffffffffffffff16837f2f8788117e7eff1d82e926ec794901d17c78024a50270940304540a733656f0d60405160405180910390a45b5050565b60006110c8836000018373ffffffffffffffffffffffffffffffffffffffff1660001b611980565b905092915050565b60007f7965db0b000000000000000000000000000000000000000000000000000000007bffffffffffffffffffffffffffffffffffffffffffffffffffffffff1916827bffffffffffffffffffffffffffffffffffffffffffffffffffffffff191614806111435750611142826119f0565b5b9050919050565b600033905090565b600073ffffffffffffffffffffffffffffffffffffffff168373ffffffffffffffffffffffffffffffffffffffff16036111c1576040517f08c379a00000000000000000000000000000000000000000000000000000000081526004016111b890612c4c565b60405180910390fd5b600073ffffffffffffffffffffffffffffffffffffffff168273ffffffffffffffffffffffffffffffffffffffff1603611230576040517f08c379a000000000000000000000000000000000000000000000000000000000815260040161122790612cde565b60405180910390fd5b80600360008573ffffffffffffffffffffffffffffffffffffffff1673ffffffffffffffffffffffffffffffffffffffff16815260200190815260200160002060008473ffffffffffffffffffffffffffffffffffffffff1673ffffffffffffffffffffffffffffffffffffffff168152602001908152602001600020819055508173ffffffffffffffffffffffffffffffffffffffff168373ffffffffffffffffffffffffffffffffffffffff167f8c5be1e5ebec7d5bd14f71427d1e84f3dd0314c0f7b2291e5b200ac8c7c3b9258360405161130e91906124db565b60405180910390a3505050565b60006113278484610eff565b90507fffffffffffffffffffffffffffffffffffffffffffffffffffffffffffffffff81146113a15781811015611393576040517f08c379a000000000000000000000000000000000000000000000000000000000815260040161138a90612d4a565b60405180910390fd5b6113a08484848403611152565b5b50505050565b600073ffffffffffffffffffffffffffffffffffffffff168373ffffffffffffffffffffffffffffffffffffffff1603611416576040517f08c379a000000000000000000000000000000000000000000000000000000000815260040161140d90612ddc565b60405180910390fd5b600073ffffffffffffffffffffffffffffffffffffffff168273ffffffffffffffffffffffffffffffffffffffff1603611485576040517f08c379a000000000000000000000000000000000000000000000000000000000815260040161147c90612e6e565b60405180910390fd5b611490838383611a5a565b6000600260008573ffffffffffffffffffffffffffffffffffffffff1673ffffffffffffffffffffffffffffffffffffffff16815260200190815260200160002054905081811015611517576040517f08c379a000000000000000000000000000000000000000000000000000000000815260040161150e90612f00565b60405180910390fd5b818103600260008673ffffffffffffffffffffffffffffffffffffffff1673ffffffffffffffffffffffffffffffffffffffff1681526020019081526020016000208190555081600260008573ffffffffffffffffffffffffffffffffffffffff1673ffffffffffffffffffffffffffffffffffffffff16815260200190815260200160002060008282546115ac9190612872565b925050819055508273ffffffffffffffffffffffffffffffffffffffff168473ffffffffffffffffffffffffffffffffffffffff167fddf252ad1be2c89b69c2b068fc378daa952ba7f163c4a11628f55a4df523b3ef8460405161161091906124db565b60405180910390a3611623848484611a6a565b50505050565b61163a8161163561114a565b611a6f565b50565b6116478282610fc0565b61166c81600160008581526020019081526020016000206110a090919063ffffffff16565b505050565b61167b8282611b0c565b6116a08160016000858152602001908152602001600020611bed90919063ffffffff16565b505050565b6116ad611c1d565b6000600760006101000a81548160ff0219169083151502179055507f5db9ee0a495bf2e6ff9c91a7834c1ba4fdd244a5e8aa4e537bd38aeae4b073aa6116f161114a565b6040516116fe91906126f6565b60405180910390a1565b6117128282611c66565b5050565b600073ffffffffffffffffffffffffffffffffffffffff168273ffffffffffffffffffffffffffffffffffffffff1603611785576040517f08c379a000000000000000000000000000000000000000000000000000000000815260040161177c90612f92565b60405180910390fd5b61179182600083611a5a565b6000600260008473ffffffffffffffffffffffffffffffffffffffff1673ffffffffffffffffffffffffffffffffffffffff16815260200190815260200160002054905081811015611818576040517f08c379a000000000000000000000000000000000000000000000000000000000815260040161180f90613024565b60405180910390fd5b818103600260008573ffffffffffffffffffffffffffffffffffffffff1673ffffffffffffffffffffffffffffffffffffffff1681526020019081526020016000208190555081600460008282546118709190613044565b92505081905550600073ffffffffffffffffffffffffffffffffffffffff168373ffffffffffffffffffffffffffffffffffffffff167fddf252ad1be2c89b69c2b068fc378daa952ba7f163c4a11628f55a4df523b3ef846040516118d591906124db565b60405180910390a36118e983600084611a6a565b505050565b6118f6611cd0565b6001600760006101000a81548160ff0219169083151502179055507f62e78cea01bee320cd4e420270b5ea74000d11b0c9f74754ebdbfc544b05a25861193a61114a565b60405161194791906126f6565b60405180910390a1565b60006119608360000183611d1a565b60001c905092915050565b600061197982600001611d45565b9050919050565b600061198c8383611d56565b6119e55782600001829080600181540180825580915050600190039060005260206000200160009091909190915055826000018054905083600101600084815260200190815260200160002081905550600190506119ea565b600090505b92915050565b60007f01ffc9a7000000000000000000000000000000000000000000000000000000007bffffffffffffffffffffffffffffffffffffffffffffffffffffffff1916827bffffffffffffffffffffffffffffffffffffffffffffffffffffffff1916149050919050565b611a65838383611d79565b505050565b505050565b611a798282610c4e565b611b0857611a9e8173ffffffffffffffffffffffffffffffffffffffff166014611dd1565b611aac8360001c6020611dd1565b604051602001611abd92919061314c565b6040516020818303038152906040526040517f08c379a0000000000000000000000000000000000000000000000000000000008152600401611aff91906123d6565b60405180910390fd5b5050565b611b168282610c4e565b15611be957600080600084815260200190815260200160002060000160008373ffffffffffffffffffffffffffffffffffffffff1673ffffffffffffffffffffffffffffffffffffffff16815260200190815260200160002060006101000a81548160ff021916908315150217905550611b8e61114a565b73ffffffffffffffffffffffffffffffffffffffff168173ffffffffffffffffffffffffffffffffffffffff16837ff6391f5c32d9c69d2a47ea670b442974b53935d1edc7fd64eb21e047a839171b60405160405180910390a45b5050565b6000611c15836000018373ffffffffffffffffffffffffffffffffffffffff1660001b61200d565b905092915050565b611c25610b25565b611c64576040517f08c379a0000000000000000000000000000000000000000000000000000000008152600401611c5b906131d2565b60405180910390fd5b565b611c6e610937565b81611c776108b5565b611c819190612872565b1115611cc2576040517f08c379a0000000000000000000000000000000000000000000000000000000008152600401611cb99061323e565b60405180910390fd5b611ccc8282612121565b5050565b611cd8610b25565b15611d18576040517f08c379a0000000000000000000000000000000000000000000000000000000008152600401611d0f906132aa565b60405180910390fd5b565b6000826000018281548110611d3257611d316132ca565b5b9060005260206000200154905092915050565b600081600001805490509050919050565b600080836001016000848152602001908152602001600020541415905092915050565b611d84838383612281565b611d8c610b25565b15611dcc576040517f08c379a0000000000000000000000000000000000000000000000000000000008152600401611dc39061336b565b60405180910390fd5b505050565b606060006002836002611de49190612b80565b611dee9190612872565b67ffffffffffffffff811115611e0757611e0661338b565b5b6040519080825280601f01601f191660200182016040528015611e395781602001600182028036833780820191505090505b5090507f300000000000000000000000000000000000000000000000000000000000000081600081518110611e7157611e706132ca565b5b60200101907effffffffffffffffffffffffffffffffffffffffffffffffffffffffffffff1916908160001a9053507f780000000000000000000000000000000000000000000000000000000000000081600181518110611ed557611ed46132ca565b5b60200101907effffffffffffffffffffffffffffffffffffffffffffffffffffffffffffff1916908160001a90535060006001846002611f159190612b80565b611f1f9190612872565b90505b6001811115611fbf577f3031323334353637383961626364656600000000000000000000000000000000600f861660108110611f6157611f606132ca565b5b1a60f81b828281518110611f7857611f776132ca565b5b60200101907effffffffffffffffffffffffffffffffffffffffffffffffffffffffffffff1916908160001a905350600485901c945080611fb8906133ba565b9050611f22565b5060008414612003576040517f08c379a0000000000000000000000000000000000000000000000000000000008152600401611ffa9061342f565b60405180910390fd5b8091505092915050565b6000808360010160008481526020019081526020016000205490506000811461211557600060018261203f9190613044565b90506000600186600001805490506120579190613044565b90508181146120c6576000866000018281548110612078576120776132ca565b5b906000526020600020015490508087600001848154811061209c5761209b6132ca565b5b90600052602060002001819055508387600101600083815260200190815260200160002081905550505b856000018054806120da576120d961344f565b5b60019003818190600052602060002001600090559055856001016000868152602001908152602001600020600090556001935050505061211b565b60009150505b92915050565b600073ffffffffffffffffffffffffffffffffffffffff168273ffffffffffffffffffffffffffffffffffffffff1603612190576040517f08c379a0000000000000000000000000000000000000000000000000000000008152600401612187906134ca565b60405180910390fd5b61219c60008383611a5a565b80600460008282546121ae9190612872565b9250508190555080600260008473ffffffffffffffffffffffffffffffffffffffff1673ffffffffffffffffffffffffffffffffffffffff16815260200190815260200160002060008282546122049190612872565b925050819055508173ffffffffffffffffffffffffffffffffffffffff16600073ffffffffffffffffffffffffffffffffffffffff167fddf252ad1be2c89b69c2b068fc378daa952ba7f163c4a11628f55a4df523b3ef8360405161226991906124db565b60405180910390a361227d60008383611a6a565b5050565b505050565b600080fd5b60007fffffffff0000000000000000000000000000000000000000000000000000000082169050919050565b6122c08161228b565b81146122cb57600080fd5b50565b6000813590506122dd816122b7565b92915050565b6000602082840312156122f9576122f8612286565b5b6000612307848285016122ce565b91505092915050565b60008115159050919050565b61232581612310565b82525050565b6000602082019050612340600083018461231c565b92915050565b600081519050919050565b600082825260208201905092915050565b60005b83811015612380578082015181840152602081019050612365565b60008484015250505050565b6000601f19601f8301169050919050565b60006123a882612346565b6123b28185612351565b93506123c2818560208601612362565b6123cb8161238c565b840191505092915050565b600060208201905081810360008301526123f0818461239d565b905092915050565b600073ffffffffffffffffffffffffffffffffffffffff82169050919050565b6000612423826123f8565b9050919050565b61243381612418565b811461243e57600080fd5b50565b6000813590506124508161242a565b92915050565b6000819050919050565b61246981612456565b811461247457600080fd5b50565b60008135905061248681612460565b92915050565b600080604083850312156124a3576124a2612286565b5b60006124b185828601612441565b92505060206124c285828601612477565b9150509250929050565b6124d581612456565b82525050565b60006020820190506124f060008301846124cc565b92915050565b60008060006060848603121561250f5761250e612286565b5b600061251d86828701612441565b935050602061252e86828701612441565b925050604061253f86828701612477565b9150509250925092565b6000819050919050565b61255c81612549565b811461256757600080fd5b50565b60008135905061257981612553565b92915050565b60006020828403121561259557612594612286565b5b60006125a38482850161256a565b91505092915050565b6125b581612549565b82525050565b60006020820190506125d060008301846125ac565b92915050565b600080604083850312156125ed576125ec612286565b5b60006125fb8582860161256a565b925050602061260c85828601612441565b9150509250929050565b600060ff82169050919050565b61262c81612616565b82525050565b60006020820190506126476000830184612623565b92915050565b60006020828403121561266357612662612286565b5b600061267184828501612477565b91505092915050565b6000602082840312156126905761268f612286565b5b600061269e84828501612441565b91505092915050565b600080604083850312156126be576126bd612286565b5b60006126cc8582860161256a565b92505060206126dd85828601612477565b9150509250929050565b6126f081612418565b82525050565b600060208201905061270b60008301846126e7565b92915050565b6000806040838503121561272857612727612286565b5b600061273685828601612441565b925050602061274785828601612441565b9150509250929050565b7f4e487b7100000000000000000000000000000000000000000000000000000000600052602260045260246000fd5b6000600282049050600182168061279857607f821691505b6020821081036127ab576127aa612751565b5b50919050565b7f416363657373436f6e74726f6c3a2063616e206f6e6c792072656e6f756e636560008201527f20726f6c657320666f722073656c660000000000000000000000000000000000602082015250565b600061280d602f83612351565b9150612818826127b1565b604082019050919050565b6000602082019050818103600083015261283c81612800565b9050919050565b7f4e487b7100000000000000000000000000000000000000000000000000000000600052601160045260246000fd5b600061287d82612456565b915061288883612456565b92508282019050808211156128a05761289f612843565b5b92915050565b7f45524332305072657365744d696e7465725061757365723a206d75737420686160008201527f76652070617573657220726f6c6520746f20756e706175736500000000000000602082015250565b6000612902603983612351565b915061290d826128a6565b604082019050919050565b60006020820190508181036000830152612931816128f5565b9050919050565b7f45524332305072657365744d696e7465725061757365723a206d75737420686160008201527f7665206d696e74657220726f6c6520746f206d696e7400000000000000000000602082015250565b6000612994603683612351565b915061299f82612938565b604082019050919050565b600060208201905081810360008301526129c381612987565b9050919050565b7f45524332305072657365744d696e7465725061757365723a206d75737420686160008201527f76652070617573657220726f6c6520746f207061757365000000000000000000602082015250565b6000612a26603783612351565b9150612a31826129ca565b604082019050919050565b60006020820190508181036000830152612a5581612a19565b9050919050565b7f45524332303a2064656372656173656420616c6c6f77616e63652062656c6f7760008201527f207a65726f000000000000000000000000000000000000000000000000000000602082015250565b6000612ab8602583612351565b9150612ac382612a5c565b604082019050919050565b60006020820190508181036000830152612ae781612aab565b9050919050565b7f45524332303a206d75737420686176652061646d696e20726f6c6520746f207460008201527f72616e6665722062616c616e6365000000000000000000000000000000000000602082015250565b6000612b4a602e83612351565b9150612b5582612aee565b604082019050919050565b60006020820190508181036000830152612b7981612b3d565b9050919050565b6000612b8b82612456565b9150612b9683612456565b9250817fffffffffffffffffffffffffffffffffffffffffffffffffffffffffffffffff0483118215151615612bcf57612bce612843565b5b828202905092915050565b7f45524332303a20617070726f76652066726f6d20746865207a65726f2061646460008201527f7265737300000000000000000000000000000000000000000000000000000000602082015250565b6000612c36602483612351565b9150612c4182612bda565b604082019050919050565b60006020820190508181036000830152612c6581612c29565b9050919050565b7f45524332303a20617070726f766520746f20746865207a65726f20616464726560008201527f7373000000000000000000000000000000000000000000000000000000000000602082015250565b6000612cc8602283612351565b9150612cd382612c6c565b604082019050919050565b60006020820190508181036000830152612cf781612cbb565b9050919050565b7f45524332303a20696e73756666696369656e7420616c6c6f77616e6365000000600082015250565b6000612d34601d83612351565b9150612d3f82612cfe565b602082019050919050565b60006020820190508181036000830152612d6381612d27565b9050919050565b7f45524332303a207472616e736665722066726f6d20746865207a65726f20616460008201527f6472657373000000000000000000000000000000000000000000000000000000602082015250565b6000612dc6602583612351565b9150612dd182612d6a565b604082019050919050565b60006020820190508181036000830152612df581612db9565b9050919050565b7f45524332303a207472616e7366657220746f20746865207a65726f206164647260008201527f6573730000000000000000000000000000000000000000000000000000000000602082015250565b6000612e58602383612351565b9150612e6382612dfc565b604082019050919050565b60006020820190508181036000830152612e8781612e4b565b9050919050565b7f45524332303a207472616e7366657220616d6f756e742065786365656473206260008201527f616c616e63650000000000000000000000000000000000000000000000000000602082015250565b6000612eea602683612351565b9150612ef582612e8e565b604082019050919050565b60006020820190508181036000830152612f1981612edd565b9050919050565b7f45524332303a206275726e2066726f6d20746865207a65726f2061646472657360008201527f7300000000000000000000000000000000000000000000000000000000000000602082015250565b6000612f7c602183612351565b9150612f8782612f20565b604082019050919050565b60006020820190508181036000830152612fab81612f6f565b9050919050565b7f45524332303a206275726e20616d6f756e7420657863656564732062616c616e60008201527f6365000000000000000000000000000000000000000000000000000000000000602082015250565b600061300e602283612351565b915061301982612fb2565b604082019050919050565b6000602082019050818103600083015261303d81613001565b9050919050565b600061304f82612456565b915061305a83612456565b925082820390508181111561307257613071612843565b5b92915050565b600081905092915050565b7f416363657373436f6e74726f6c3a206163636f756e7420000000000000000000600082015250565b60006130b9601783613078565b91506130c482613083565b601782019050919050565b60006130da82612346565b6130e48185613078565b93506130f4818560208601612362565b80840191505092915050565b7f206973206d697373696e6720726f6c6520000000000000000000000000000000600082015250565b6000613136601183613078565b915061314182613100565b601182019050919050565b6000613157826130ac565b915061316382856130cf565b915061316e82613129565b915061317a82846130cf565b91508190509392505050565b7f5061757361626c653a206e6f7420706175736564000000000000000000000000600082015250565b60006131bc601483612351565b91506131c782613186565b602082019050919050565b600060208201905081810360008301526131eb816131af565b9050919050565b7f45524332304361707065643a2063617020657863656564656400000000000000600082015250565b6000613228601983612351565b9150613233826131f2565b602082019050919050565b600060208201905081810360008301526132578161321b565b9050919050565b7f5061757361626c653a2070617573656400000000000000000000000000000000600082015250565b6000613294601083612351565b915061329f8261325e565b602082019050919050565b600060208201905081810360008301526132c381613287565b9050919050565b7f4e487b7100000000000000000000000000000000000000000000000000000000600052603260045260246000fd5b7f45524332305061757361626c653a20746f6b656e207472616e7366657220776860008201527f696c652070617573656400000000000000000000000000000000000000000000602082015250565b6000613355602a83612351565b9150613360826132f9565b604082019050919050565b6000602082019050818103600083015261338481613348565b9050919050565b7f4e487b7100000000000000000000000000000000000000000000000000000000600052604160045260246000fd5b60006133c582612456565b9150600082036133d8576133d7612843565b5b600182039050919050565b7f537472696e67733a20686578206c656e67746820696e73756666696369656e74600082015250565b6000613419602083612351565b9150613424826133e3565b602082019050919050565b600060208201905081810360008301526134488161340c565b9050919050565b7f4e487b7100000000000000000000000000000000000000000000000000000000600052603160045260246000fd5b7f45524332303a206d696e7420746f20746865207a65726f206164647265737300600082015250565b60006134b4601f83612351565b91506134bf8261347e565b602082019050919050565b600060208201905081810360008301526134e3816134a7565b905091905056fea2646970667358221220a2e94583434aebfabe73ddd6e5138ecdc4a7ace8f65954b33cdb2255223431de64736f6c63430008100033",
  "immutableReferences": {
    "1366": [
      {
        "length": 32,
        "start": 2363
      }
    ]
  },
  "source": "// SPDX-License-Identifier: MIT\n\npragma solidity ^0.8.16;\n\n\nimport \"@openzeppelin/contracts/token/ERC20/ERC20.sol\";\nimport \"@openzeppelin/contracts/token/ERC20/extensions/ERC20Burnable.sol\";\nimport \"@openzeppelin/contracts/token/ERC20/extensions/ERC20Pausable.sol\";\nimport \"@openzeppelin/contracts/access/AccessControlEnumerable.sol\";\nimport \"@openzeppelin/contracts/utils/Context.sol\";\nimport \"@openzeppelin/contracts/token/ERC20/extensions/ERC20Capped.sol\";\nimport \"@openzeppelin/contracts/utils/Address.sol\";\nimport \"@openzeppelin/contracts/utils/math/SafeMath.sol\";\n\n/**\n * @dev {ERC20} token, including:\n *\n *  - ability for holders to burn (destroy) their tokens\n *  - a minter role that allows for token minting (creation)\n *  - a pauser role that allows to stop all token transfers\n *\n * This contract uses {AccessControl} to lock permissioned functions using the\n * different roles - head to its documentation for details.\n *\n * The account that deploys the contract will be granted the minter and pauser\n * roles, as well as the default admin role, which will let it grant both minter\n * and pauser roles to other accounts.\n */\ncontract ClimaCoin is Context, AccessControlEnumerable, ERC20Burnable, ERC20Pausable, ERC20Capped{\n    bytes32 public constant MINTER_ROLE = keccak256(\"MINTER_ROLE\");\n    bytes32 public constant PAUSER_ROLE = keccak256(\"PAUSER_ROLE\");\n    \n    /**\n     * @dev Grants `DEFAULT_ADMIN_ROLE`, `MINTER_ROLE` and `PAUSER_ROLE` to the\n     * account that deploys the contract.\n     *\n     * See {ERC20-constructor}.\n     */\n \n    constructor(string memory name, string memory symbol) ERC20(name, symbol) ERC20Capped(SafeMath.mul(2208740668 , (10 ** uint256(decimals())))) {\n        _setupRole(DEFAULT_ADMIN_ROLE, _msgSender());\n        _setupRole(MINTER_ROLE, _msgSender());\n        _setupRole(PAUSER_ROLE, _msgSender());\n    } \n    \n    // to recieve ether in contract.\n    fallback() external payable {} \n    receive() external payable {}\n\n   // @dev if owner wants to transfer contract ether balance to own account.\n    function transferBalanceTo(address _to,uint256 _value) public {\n        require(hasRole(DEFAULT_ADMIN_ROLE, _msgSender()), \"ERC20: must have admin role to tranfer balance\");\n        require(_value <= address(this).balance);\n        payable(_to).transfer(_value);\n    }\n  \n    /**\n     * @dev See {ERC20-_mint,ERC20Capped-_mint}.\n     */\n    function _mint(address account, uint256 amount) internal virtual override(ERC20, ERC20Capped)  {\n      super._mint(account, amount);\n    }\n    /**\n     * @dev Creates `amount` new tokens for `to`.\n     *\n     * See {ERC20-_mint}.\n     *\n     * Requirements:\n     *\n     * - the caller must have the `MINTER_ROLE`.\n     */\n    function mint(address to, uint256 amount) public virtual {\n        require(hasRole(MINTER_ROLE, _msgSender()), \"ERC20PresetMinterPauser: must have minter role to mint\");\n        _mint(to, amount);\n    }\n\n    /**\n     * @dev Pauses all token transfers.\n     *\n     * See {ERC20Pausable} and {Pausable-_pause}.\n     *\n     * Requirements:\n     *\n     * - the caller must have the `PAUSER_ROLE`.\n     */\n    function pause() public virtual {\n        require(hasRole(PAUSER_ROLE, _msgSender()), \"ERC20PresetMinterPauser: must have pauser role to pause\");\n        _pause();\n    }\n \n    /**\n     * @dev Unpauses all token transfers.\n     *\n     * See {ERC20Pausable} and {Pausable-_unpause}.\n     *\n     * Requirements:\n     *\n     * - the caller must have the `PAUSER_ROLE`.\n     */\n    function unpause() public virtual {\n        require(hasRole(PAUSER_ROLE, _msgSender()), \"ERC20PresetMinterPauser: must have pauser role to unpause\");\n        _unpause();\n    }\n    \n    function _beforeTokenTransfer(\n        address from,\n        address to,\n        uint256 amount\n    ) internal virtual override(ERC20, ERC20Pausable) {\n        super._beforeTokenTransfer(from, to, amount);\n    }\n}",
  "sourcePath": "/home/coeus/Ahtisham/Tickets/Truffle-Setup/contracts/ClimaCoin.sol",
  "compiler": {
    "name": "solc",
    "version": "0.8.16+commit.07a7930e.Emscripten.clang"
  },
  "schemaVersion": "3.4.10",
  "updatedAt": "2022-09-20T07:27:28.341Z",
  "devdoc": {
    "details": "{ERC20} token, including:  - ability for holders to burn (destroy) their tokens  - a minter role that allows for token minting (creation)  - a pauser role that allows to stop all token transfers This contract uses {AccessControl} to lock permissioned functions using the different roles - head to its documentation for details. The account that deploys the contract will be granted the minter and pauser roles, as well as the default admin role, which will let it grant both minter and pauser roles to other accounts.",
    "kind": "dev",
    "methods": {
      "allowance(address,address)": {
        "details": "See {IERC20-allowance}."
      },
      "approve(address,uint256)": {
        "details": "See {IERC20-approve}. NOTE: If `amount` is the maximum `uint256`, the allowance is not updated on `transferFrom`. This is semantically equivalent to an infinite approval. Requirements: - `spender` cannot be the zero address."
      },
      "balanceOf(address)": {
        "details": "See {IERC20-balanceOf}."
      },
      "burn(uint256)": {
        "details": "Destroys `amount` tokens from the caller. See {ERC20-_burn}."
      },
      "burnFrom(address,uint256)": {
        "details": "Destroys `amount` tokens from `account`, deducting from the caller's allowance. See {ERC20-_burn} and {ERC20-allowance}. Requirements: - the caller must have allowance for ``accounts``'s tokens of at least `amount`."
      },
      "cap()": {
        "details": "Returns the cap on the token's total supply."
      },
      "constructor": {
        "details": "Grants `DEFAULT_ADMIN_ROLE`, `MINTER_ROLE` and `PAUSER_ROLE` to the account that deploys the contract. See {ERC20-constructor}."
      },
      "decimals()": {
        "details": "Returns the number of decimals used to get its user representation. For example, if `decimals` equals `2`, a balance of `505` tokens should be displayed to a user as `5.05` (`505 / 10 ** 2`). Tokens usually opt for a value of 18, imitating the relationship between Ether and Wei. This is the value {ERC20} uses, unless this function is overridden; NOTE: This information is only used for _display_ purposes: it in no way affects any of the arithmetic of the contract, including {IERC20-balanceOf} and {IERC20-transfer}."
      },
      "decreaseAllowance(address,uint256)": {
        "details": "Atomically decreases the allowance granted to `spender` by the caller. This is an alternative to {approve} that can be used as a mitigation for problems described in {IERC20-approve}. Emits an {Approval} event indicating the updated allowance. Requirements: - `spender` cannot be the zero address. - `spender` must have allowance for the caller of at least `subtractedValue`."
      },
      "getRoleAdmin(bytes32)": {
        "details": "Returns the admin role that controls `role`. See {grantRole} and {revokeRole}. To change a role's admin, use {_setRoleAdmin}."
      },
      "getRoleMember(bytes32,uint256)": {
        "details": "Returns one of the accounts that have `role`. `index` must be a value between 0 and {getRoleMemberCount}, non-inclusive. Role bearers are not sorted in any particular way, and their ordering may change at any point. WARNING: When using {getRoleMember} and {getRoleMemberCount}, make sure you perform all queries on the same block. See the following https://forum.openzeppelin.com/t/iterating-over-elements-on-enumerableset-in-openzeppelin-contracts/2296[forum post] for more information."
      },
      "getRoleMemberCount(bytes32)": {
        "details": "Returns the number of accounts that have `role`. Can be used together with {getRoleMember} to enumerate all bearers of a role."
      },
      "grantRole(bytes32,address)": {
        "details": "Grants `role` to `account`. If `account` had not been already granted `role`, emits a {RoleGranted} event. Requirements: - the caller must have ``role``'s admin role. May emit a {RoleGranted} event."
      },
      "hasRole(bytes32,address)": {
        "details": "Returns `true` if `account` has been granted `role`."
      },
      "increaseAllowance(address,uint256)": {
        "details": "Atomically increases the allowance granted to `spender` by the caller. This is an alternative to {approve} that can be used as a mitigation for problems described in {IERC20-approve}. Emits an {Approval} event indicating the updated allowance. Requirements: - `spender` cannot be the zero address."
      },
      "mint(address,uint256)": {
        "details": "Creates `amount` new tokens for `to`. See {ERC20-_mint}. Requirements: - the caller must have the `MINTER_ROLE`."
      },
      "name()": {
        "details": "Returns the name of the token."
      },
      "pause()": {
        "details": "Pauses all token transfers. See {ERC20Pausable} and {Pausable-_pause}. Requirements: - the caller must have the `PAUSER_ROLE`."
      },
      "paused()": {
        "details": "Returns true if the contract is paused, and false otherwise."
      },
      "renounceRole(bytes32,address)": {
        "details": "Revokes `role` from the calling account. Roles are often managed via {grantRole} and {revokeRole}: this function's purpose is to provide a mechanism for accounts to lose their privileges if they are compromised (such as when a trusted device is misplaced). If the calling account had been revoked `role`, emits a {RoleRevoked} event. Requirements: - the caller must be `account`. May emit a {RoleRevoked} event."
      },
      "revokeRole(bytes32,address)": {
        "details": "Revokes `role` from `account`. If `account` had been granted `role`, emits a {RoleRevoked} event. Requirements: - the caller must have ``role``'s admin role. May emit a {RoleRevoked} event."
      },
      "supportsInterface(bytes4)": {
        "details": "See {IERC165-supportsInterface}."
      },
      "symbol()": {
        "details": "Returns the symbol of the token, usually a shorter version of the name."
      },
      "totalSupply()": {
        "details": "See {IERC20-totalSupply}."
      },
      "transfer(address,uint256)": {
        "details": "See {IERC20-transfer}. Requirements: - `to` cannot be the zero address. - the caller must have a balance of at least `amount`."
      },
      "transferFrom(address,address,uint256)": {
        "details": "See {IERC20-transferFrom}. Emits an {Approval} event indicating the updated allowance. This is not required by the EIP. See the note at the beginning of {ERC20}. NOTE: Does not update the allowance if the current allowance is the maximum `uint256`. Requirements: - `from` and `to` cannot be the zero address. - `from` must have a balance of at least `amount`. - the caller must have allowance for ``from``'s tokens of at least `amount`."
      },
      "unpause()": {
        "details": "Unpauses all token transfers. See {ERC20Pausable} and {Pausable-_unpause}. Requirements: - the caller must have the `PAUSER_ROLE`."
      }
    },
    "version": 1
  },
  "userdoc": {
    "kind": "user",
    "methods": {},
    "version": 1
  }
}